{
  "contractName": "jjERC223",
  "abi": [
    {
      "constant": true,
      "inputs": [],
      "name": "fundsWallet",
      "outputs": [
        {
          "name": "",
          "type": "address"
        }
      ],
      "payable": false,
      "stateMutability": "view",
      "type": "function"
    },
    {
      "constant": true,
      "inputs": [],
      "name": "version",
      "outputs": [
        {
          "name": "",
          "type": "string"
        }
      ],
      "payable": false,
      "stateMutability": "view",
      "type": "function"
    },
    {
      "constant": false,
      "inputs": [
        {
          "name": "_to",
          "type": "address"
        },
        {
          "name": "_value",
          "type": "uint256"
        },
        {
          "name": "_data",
          "type": "bytes32"
        }
      ],
      "name": "transfer",
      "outputs": [],
      "payable": false,
      "stateMutability": "nonpayable",
      "type": "function"
    },
    {
      "constant": true,
      "inputs": [],
      "name": "unitsOneEthCanBuy",
      "outputs": [
        {
          "name": "",
          "type": "uint256"
        }
      ],
      "payable": false,
      "stateMutability": "view",
      "type": "function"
    },
    {
      "constant": true,
      "inputs": [
        {
          "name": "_owner",
          "type": "address"
        }
      ],
      "name": "balanceOf",
      "outputs": [
        {
          "name": "balance",
          "type": "uint256"
        }
      ],
      "payable": false,
      "stateMutability": "view",
      "type": "function"
    },
    {
      "constant": true,
      "inputs": [],
      "name": "totalEthInWei",
      "outputs": [
        {
          "name": "",
          "type": "uint256"
        }
      ],
      "payable": false,
      "stateMutability": "view",
      "type": "function"
    },
    {
      "constant": false,
      "inputs": [
        {
          "name": "_to",
          "type": "address"
        },
        {
          "name": "_value",
          "type": "uint256"
        }
      ],
      "name": "transfer",
      "outputs": [],
      "payable": false,
      "stateMutability": "nonpayable",
      "type": "function"
    },
    {
      "inputs": [],
      "payable": false,
      "stateMutability": "nonpayable",
      "type": "constructor"
    },
    {
      "payable": true,
      "stateMutability": "payable",
      "type": "fallback"
    },
    {
      "anonymous": false,
      "inputs": [
        {
          "indexed": true,
          "name": "from",
          "type": "address"
        },
        {
          "indexed": true,
          "name": "to",
          "type": "address"
        },
        {
          "indexed": false,
          "name": "value",
          "type": "uint256"
        },
        {
          "indexed": true,
          "name": "data",
          "type": "bytes32"
        }
      ],
      "name": "Transfer",
      "type": "event"
    },
    {
      "constant": true,
      "inputs": [],
      "name": "totalSupply",
      "outputs": [
        {
          "name": "totalSupply",
          "type": "uint256"
        }
      ],
      "payable": false,
      "stateMutability": "view",
      "type": "function"
    },
    {
      "constant": true,
      "inputs": [],
      "name": "name",
      "outputs": [
        {
          "name": "_name",
          "type": "string"
        }
      ],
      "payable": false,
      "stateMutability": "view",
      "type": "function"
    },
    {
      "constant": true,
      "inputs": [],
      "name": "symbol",
      "outputs": [
        {
          "name": "_symbol",
          "type": "bytes32"
        }
      ],
      "payable": false,
      "stateMutability": "view",
      "type": "function"
    },
    {
      "constant": true,
      "inputs": [],
      "name": "decimals",
      "outputs": [
        {
          "name": "_decimals",
          "type": "uint8"
        }
      ],
      "payable": false,
      "stateMutability": "view",
      "type": "function"
    }
  ],
  "bytecode": "0x60806040526040805190810160405280600481526020017f4a312e30000000000000000000000000000000000000000000000000000000008152506005908051906020019061004f9291906101bb565b5034801561005c57600080fd5b50683635c9adc5dea000006000803373ffffffffffffffffffffffffffffffffffffffff1673ffffffffffffffffffffffffffffffffffffffff16815260200190815260200160002081905550683635c9adc5dea000006004819055506040805190810160405280600881526020017f6a6a455243323233000000000000000000000000000000000000000000000000815250600190805190602001906101049291906101bb565b506012600260006101000a81548160ff021916908360ff1602179055506040805190810160405280600381526020017f6a453200000000000000000000000000000000000000000000000000000000008152506003908051906020019061016c9291906101bb565b50600a60068190555033600860006101000a81548173ffffffffffffffffffffffffffffffffffffffff021916908373ffffffffffffffffffffffffffffffffffffffff160217905550610260565b828054600181600116156101000203166002900490600052602060002090601f016020900481019282601f106101fc57805160ff191683800117855561022a565b8280016001018555821561022a579182015b8281111561022957825182559160200191906001019061020e565b5b509050610237919061023b565b5090565b61025d91905b80821115610259576000816000905550600101610241565b5090565b90565b610cae8061026f6000396000f3006080604052600436106100af576000357c0100000000000000000000000000000000000000000000000000000000900463ffffffff16806306fdde031461039157806318160ddd146104215780632194f3a21461044c578063313ce567146104a357806354fd4d50146104d457806357cfeeee1461056457806365f2bc2e146105bf57806370a08231146105ea578063933ba4131461064157806395d89b411461066c578063a9059cbb1461069f575b600034600754016007819055506006543402905080600080600860009054906101000a900473ffffffffffffffffffffffffffffffffffffffff1673ffffffffffffffffffffffffffffffffffffffff1673ffffffffffffffffffffffffffffffffffffffff168152602001908152602001600020541015151561013257600080fd5b6101a581600080600860009054906101000a900473ffffffffffffffffffffffffffffffffffffffff1673ffffffffffffffffffffffffffffffffffffffff1673ffffffffffffffffffffffffffffffffffffffff168152602001908152602001600020546106ec90919063ffffffff16565b600080600860009054906101000a900473ffffffffffffffffffffffffffffffffffffffff1673ffffffffffffffffffffffffffffffffffffffff1673ffffffffffffffffffffffffffffffffffffffff1681526020019081526020016000208190555061025a816000803373ffffffffffffffffffffffffffffffffffffffff1673ffffffffffffffffffffffffffffffffffffffff1681526020019081526020016000205461070590919063ffffffff16565b6000803373ffffffffffffffffffffffffffffffffffffffff1673ffffffffffffffffffffffffffffffffffffffff1681526020019081526020016000208190555060003373ffffffffffffffffffffffffffffffffffffffff16600860009054906101000a900473ffffffffffffffffffffffffffffffffffffffff1673ffffffffffffffffffffffffffffffffffffffff167f10d85eb696556cf89e382ad2be46259009e783f0060ef100faa456da4d834add846040518082815260200191505060405180910390a4600860009054906101000a900473ffffffffffffffffffffffffffffffffffffffff1673ffffffffffffffffffffffffffffffffffffffff166108fc349081150290604051600060405180830381858888f1935050505015801561038d573d6000803e3d6000fd5b5050005b34801561039d57600080fd5b506103a6610723565b6040518080602001828103825283818151815260200191508051906020019080838360005b838110156103e65780820151818401526020810190506103cb565b50505050905090810190601f1680156104135780820380516001836020036101000a031916815260200191505b509250505060405180910390f35b34801561042d57600080fd5b5061043661072b565b6040518082815260200191505060405180910390f35b34801561045857600080fd5b50610461610733565b604051808273ffffffffffffffffffffffffffffffffffffffff1673ffffffffffffffffffffffffffffffffffffffff16815260200191505060405180910390f35b3480156104af57600080fd5b506104b8610759565b604051808260ff1660ff16815260200191505060405180910390f35b3480156104e057600080fd5b506104e9610761565b6040518080602001828103825283818151815260200191508051906020019080838360005b8381101561052957808201518184015260208101905061050e565b50505050905090810190601f1680156105565780820380516001836020036101000a031916815260200191505b509250505060405180910390f35b34801561057057600080fd5b506105bd600480360381019080803573ffffffffffffffffffffffffffffffffffffffff1690602001909291908035906020019092919080356000191690602001909291905050506107ff565b005b3480156105cb57600080fd5b506105d461089a565b6040518082815260200191505060405180910390f35b3480156105f657600080fd5b5061062b600480360381019080803573ffffffffffffffffffffffffffffffffffffffff1690602001909291905050506108a0565b6040518082815260200191505060405180910390f35b34801561064d57600080fd5b506106566108e8565b6040518082815260200191505060405180910390f35b34801561067857600080fd5b506106816108ee565b60405180826000191660001916815260200191505060405180910390f35b3480156106ab57600080fd5b506106ea600480360381019080803573ffffffffffffffffffffffffffffffffffffffff169060200190929190803590602001909291905050506108f6565b005b60008282111515156106fa57fe5b818303905092915050565b600080828401905083811015151561071957fe5b8091505092915050565b606080905090565b600080905090565b600860009054906101000a900473ffffffffffffffffffffffffffffffffffffffff1681565b600080905090565b60058054600181600116156101000203166002900480601f0160208091040260200160405190810160405280929190818152602001828054600181600116156101000203166002900480156107f75780601f106107cc576101008083540402835291602001916107f7565b820191906000526020600020905b8154815290600101906020018083116107da57829003601f168201915b505050505081565b600073ffffffffffffffffffffffffffffffffffffffff168373ffffffffffffffffffffffffffffffffffffffff161415151561083b57600080fd5b6000803373ffffffffffffffffffffffffffffffffffffffff1673ffffffffffffffffffffffffffffffffffffffff16815260200190815260200160002054821115151561088857600080fd5b61089433848484610991565b50505050565b60065481565b60008060008373ffffffffffffffffffffffffffffffffffffffff1673ffffffffffffffffffffffffffffffffffffffff168152602001908152602001600020549050919050565b60075481565b600080905090565b600073ffffffffffffffffffffffffffffffffffffffff168273ffffffffffffffffffffffffffffffffffffffff161415151561093257600080fd5b6000803373ffffffffffffffffffffffffffffffffffffffff1673ffffffffffffffffffffffffffffffffffffffff16815260200190815260200160002054811115151561097f57600080fd5b61098c3383836000610991565b505050565b600080831115156109a157600080fd5b6109aa84610c6f565b15610ad3578373ffffffffffffffffffffffffffffffffffffffff1660405180807f746f6b656e46616c6c6261636b28616464726573732c75696e743235362c627981526020017f7465733332290000000000000000000000000000000000000000000000000000815250602601905060405180910390207c010000000000000000000000000000000000000000000000000000000090048685856040518463ffffffff167c0100000000000000000000000000000000000000000000000000000000028152600401808473ffffffffffffffffffffffffffffffffffffffff1673ffffffffffffffffffffffffffffffffffffffff168152602001838152602001826000191660001916815260200193505050506000604051808303816000875af192505050505b610b24836000808873ffffffffffffffffffffffffffffffffffffffff1673ffffffffffffffffffffffffffffffffffffffff168152602001908152602001600020546106ec90919063ffffffff16565b6000808773ffffffffffffffffffffffffffffffffffffffff1673ffffffffffffffffffffffffffffffffffffffff16815260200190815260200160002081905550610bb7836000808773ffffffffffffffffffffffffffffffffffffffff1673ffffffffffffffffffffffffffffffffffffffff1681526020019081526020016000205461070590919063ffffffff16565b6000808673ffffffffffffffffffffffffffffffffffffffff1673ffffffffffffffffffffffffffffffffffffffff1681526020019081526020016000208190555081600019168473ffffffffffffffffffffffffffffffffffffffff168673ffffffffffffffffffffffffffffffffffffffff167f10d85eb696556cf89e382ad2be46259009e783f0060ef100faa456da4d834add866040518082815260200191505060405180910390a460019050949350505050565b600080823b9050600081119150509190505600a165627a7a723058201617f42d414fa6c4b66a8aeeb344cba3e1db73c4d0962d7977046c21a99f228a0029",
  "source": "\n\npragma solidity ^0.4.18;\n\nimport './SafeMath.sol';\n\ncontract ERC223 {\n    \n    /// @param _owner The address from which the balance will be retrieved\n    /// @return The balance\n    \n    function balanceOf(address _owner) public view returns (uint256);\n    \n    /// @notice send `_value` token to `_to` from `msg.sender`\n    /// @param _to The address of the recipient\n    /// @param _value The amount of token to be transferred\n    /// @return Whether the transfer was successful or not\n    \n    function transfer(address _to, uint256 _value) external;\n    function transfer(address _to, uint256 _value, bytes32 _data) external;\n    function _transfer(address _from, address _to, uint256 _value, bytes32 _data) internal returns(bool);\n    \n    event Transfer(address indexed from, address indexed to, uint256 value, bytes32 indexed data);\n}\n\ncontract StandardToken is ERC223{\n  using SafeMath for uint;\n  \n    mapping (address => uint256) balances;\n    \n    \n    function balanceOf(address _owner) public view returns (uint256 balance) {\n        return balances[_owner];\n    }\n    \n    function transfer(address _to, uint256 _value) external{\n        require(_to != address(0));\n        require(_value <= balances[msg.sender]);\n        _transfer(msg.sender,_to,_value,\"\");\n    }\n    function transfer(address _to, uint256 _value, bytes32 _data) external{\n        require(_to != address(0));\n        require(_value <= balances[msg.sender]);\n        _transfer(msg.sender,_to,_value,_data);\n        \n    }\n    \n    function _transfer(address _from, address _to, uint256 _value, bytes32 _data) internal returns(bool){\n        require(_value > 0 );\n        if(isContract(_to)) {\n            _to.call(bytes4(sha3(\"tokenFallback(address,uint256,bytes32)\")), _from,_value,_data);\n        }\n        balances[_from] = balances[_from].sub(_value);\n        balances[_to] = balances[_to].add(_value);\n        Transfer(_from, _to, _value, _data);\n        return true;\n    }\n    \n    function isContract(address _addr) private returns (bool is_contract) {\n        uint length;\n        assembly {\n            //retrieve the size of the code on target address, this needs assembly\n            length := extcodesize(_addr)\n        }\n        return (length>0);\n    }\n}\n\ncontract jjERC223 is StandardToken{\n    \n    string internal _name;                   // Token Name\n    uint8 internal _decimals;                // How many decimals to show. To be standard complicant keep it 18\n    string internal _symbol;                 // An identifier: eg SBX, XPR etc..\n    uint256 public totalSupply;\n    string public version = 'J1.0'; \n    uint256 public unitsOneEthCanBuy;     // How many units of your coin can be bought by 1 ETH?\n    uint256 public totalEthInWei;         // WEI is the smallest unit of ETH (the equivalent of cent in USD or satoshi in BTC). We'll store the total ETH raised via our ICO here.  \n    address public fundsWallet;           // Where should the raised ETH go?\n    \n    \n    function totalSupply() constant returns (uint256 totalSupply){\n        return totalSupply;\n    }\n    function name() constant returns (string _name){\n        return _name;\n    }\n    function symbol() constant returns (bytes32 _symbol){\n        return _symbol;\n    }\n    function decimals() constant returns (uint8 _decimals){\n        return _decimals;\n    }\n\n    \n    \n    function() payable{\n        totalEthInWei = totalEthInWei + msg.value;\n        uint256 amount = msg.value * unitsOneEthCanBuy;\n        require(balances[fundsWallet] >= amount);\n\n        balances[fundsWallet] = balances[fundsWallet].sub(amount);\n        balances[msg.sender] = balances[msg.sender].add(amount);\n\n        Transfer(fundsWallet, msg.sender, amount, \"\"); // Broadcast a message to the blockchain\n\n        //Transfer ether to fundsWallet\n        fundsWallet.transfer(msg.value);                               \n    }\n    \n    function jjERC223(){\n        balances[msg.sender] = 1000000000000000000000;               // Give the creator all initial tokens. This is set to 1000 for example. If you want your initial tokens to be X and your decimal is 5, set this value to X * 100000. (CHANGE THIS)\n        totalSupply = 1000000000000000000000;                        // Update total supply (1000 for example) (CHANGE THIS)\n        _name = \"jjERC223\";                                   // Set the name for display purposes (CHANGE THIS)\n        _decimals = 18;                                               // Amount of decimals for display purposes (CHANGE THIS)\n        _symbol = \"jE2\";                                             // Set the symbol for display purposes (CHANGE THIS)\n        unitsOneEthCanBuy = 10;                                      // Set the price of your token for the ICO (CHANGE THIS)\n        fundsWallet = msg.sender;                                    // The owner of the contract gets ETH\n    }\n}\n",
  "sourcePath": "/Users/jaejin/workspace_projects/voting-practice6/contracts/jjERC223.sol",
  "compiler": {
    "name": "solc",
    "version": "0.4.24+commit.e67f0147.Emscripten.clang"
  },
  "schemaVersion": "2.0.1",
  "updatedAt": "2018-07-17T08:38:22.721Z"
}