{
  "contractName": "Voting",
  "abi": [
    {
      "constant": true,
      "inputs": [
        {
          "name": "",
          "type": "bytes32"
        }
      ],
      "name": "votesReceived",
      "outputs": [
        {
          "name": "",
          "type": "uint256"
        }
      ],
      "payable": false,
      "stateMutability": "view",
      "type": "function"
    },
    {
      "constant": true,
      "inputs": [],
      "name": "owner",
      "outputs": [
        {
          "name": "",
          "type": "address"
        }
      ],
      "payable": false,
      "stateMutability": "view",
      "type": "function"
    },
    {
      "constant": true,
      "inputs": [],
      "name": "tokenAddress",
      "outputs": [
        {
          "name": "",
          "type": "address"
        }
      ],
      "payable": false,
      "stateMutability": "view",
      "type": "function"
    },
    {
      "constant": true,
      "inputs": [
        {
          "name": "",
          "type": "uint256"
        }
      ],
      "name": "candidateList",
      "outputs": [
        {
          "name": "",
          "type": "bytes32"
        }
      ],
      "payable": false,
      "stateMutability": "view",
      "type": "function"
    },
    {
      "constant": true,
      "inputs": [
        {
          "name": "",
          "type": "bytes32"
        }
      ],
      "name": "isCandidate",
      "outputs": [
        {
          "name": "",
          "type": "bool"
        }
      ],
      "payable": false,
      "stateMutability": "view",
      "type": "function"
    },
    {
      "constant": true,
      "inputs": [
        {
          "name": "",
          "type": "address"
        }
      ],
      "name": "voterInfo",
      "outputs": [
        {
          "name": "tokenHolding",
          "type": "uint256"
        }
      ],
      "payable": false,
      "stateMutability": "view",
      "type": "function"
    },
    {
      "constant": false,
      "inputs": [
        {
          "name": "newOwner",
          "type": "address"
        }
      ],
      "name": "transferOwnership",
      "outputs": [],
      "payable": false,
      "stateMutability": "nonpayable",
      "type": "function"
    },
    {
      "constant": true,
      "inputs": [],
      "name": "tokenInterface",
      "outputs": [
        {
          "name": "",
          "type": "address"
        }
      ],
      "payable": false,
      "stateMutability": "view",
      "type": "function"
    },
    {
      "inputs": [
        {
          "name": "candidateNames",
          "type": "bytes32[]"
        },
        {
          "name": "tokenAddressCandidate",
          "type": "address"
        }
      ],
      "payable": true,
      "stateMutability": "payable",
      "type": "constructor"
    },
    {
      "constant": false,
      "inputs": [
        {
          "name": "voter_addr",
          "type": "address"
        },
        {
          "name": "value",
          "type": "uint256"
        }
      ],
      "name": "isValidVoter",
      "outputs": [
        {
          "name": "",
          "type": "bool"
        }
      ],
      "payable": false,
      "stateMutability": "nonpayable",
      "type": "function"
    },
    {
      "constant": false,
      "inputs": [
        {
          "name": "tokenAddressCandidate",
          "type": "address"
        }
      ],
      "name": "setTokenAddress",
      "outputs": [
        {
          "name": "",
          "type": "address"
        }
      ],
      "payable": false,
      "stateMutability": "nonpayable",
      "type": "function"
    },
    {
      "constant": true,
      "inputs": [
        {
          "name": "candidate",
          "type": "bytes32"
        }
      ],
      "name": "totalVotesFor",
      "outputs": [
        {
          "name": "",
          "type": "uint256"
        }
      ],
      "payable": false,
      "stateMutability": "view",
      "type": "function"
    },
    {
      "constant": true,
      "inputs": [
        {
          "name": "votedCandidateList",
          "type": "bytes32[]"
        },
        {
          "name": "candidate",
          "type": "bytes32"
        }
      ],
      "name": "indexOfCandidate",
      "outputs": [
        {
          "name": "",
          "type": "uint256"
        }
      ],
      "payable": false,
      "stateMutability": "view",
      "type": "function"
    },
    {
      "constant": false,
      "inputs": [
        {
          "name": "from",
          "type": "address"
        },
        {
          "name": "votes",
          "type": "uint256"
        },
        {
          "name": "candidate",
          "type": "bytes32"
        }
      ],
      "name": "tokenFallback",
      "outputs": [],
      "payable": false,
      "stateMutability": "nonpayable",
      "type": "function"
    },
    {
      "constant": false,
      "inputs": [
        {
          "name": "candidateNames",
          "type": "bytes32[]"
        }
      ],
      "name": "addCandidates",
      "outputs": [],
      "payable": false,
      "stateMutability": "nonpayable",
      "type": "function"
    },
    {
      "constant": true,
      "inputs": [],
      "name": "allCandidates",
      "outputs": [
        {
          "name": "",
          "type": "bytes32[]"
        }
      ],
      "payable": false,
      "stateMutability": "view",
      "type": "function"
    },
    {
      "constant": true,
      "inputs": [],
      "name": "totalToken",
      "outputs": [
        {
          "name": "",
          "type": "uint256"
        }
      ],
      "payable": false,
      "stateMutability": "view",
      "type": "function"
    },
    {
      "constant": true,
      "inputs": [
        {
          "name": "user",
          "type": "address"
        }
      ],
      "name": "voterDetails",
      "outputs": [
        {
          "name": "",
          "type": "bytes32[]"
        },
        {
          "name": "",
          "type": "uint256[]"
        }
      ],
      "payable": false,
      "stateMutability": "view",
      "type": "function"
    },
    {
      "constant": false,
      "inputs": [],
      "name": "currentVote",
      "outputs": [
        {
          "name": "",
          "type": "bytes32[]"
        },
        {
          "name": "",
          "type": "uint256[]"
        }
      ],
      "payable": false,
      "stateMutability": "nonpayable",
      "type": "function"
    }
  ],
  "bytecode": "0x6080604052604051620017c7380380620017c78339810180604052810190808051820192919060200180519060200190929190505050336000806101000a81548173ffffffffffffffffffffffffffffffffffffffff021916908373ffffffffffffffffffffffffffffffffffffffff1602179055506200008f81620000b2640100000000026401000000009004565b50620000aa82620001fa640100000000026401000000009004565b50506200030f565b60008060009054906101000a900473ffffffffffffffffffffffffffffffffffffffff1673ffffffffffffffffffffffffffffffffffffffff163373ffffffffffffffffffffffffffffffffffffffff161415156200011057600080fd5b600073ffffffffffffffffffffffffffffffffffffffff168273ffffffffffffffffffffffffffffffffffffffff16141515620001f45781600560006101000a81548173ffffffffffffffffffffffffffffffffffffffff021916908373ffffffffffffffffffffffffffffffffffffffff16021790555081600660006101000a81548173ffffffffffffffffffffffffffffffffffffffff021916908373ffffffffffffffffffffffffffffffffffffffff160217905550600560009054906101000a900473ffffffffffffffffffffffffffffffffffffffff169050620001f5565b5b919050565b60008060009054906101000a900473ffffffffffffffffffffffffffffffffffffffff1673ffffffffffffffffffffffffffffffffffffffff163373ffffffffffffffffffffffffffffffffffffffff161415156200025857600080fd5b600090505b81518110156200030b57600482828151811015156200027857fe5b9060200190602002015190806001815401808255809150509060018203906000526020600020016000909192909190915090600019169055506001600360008484815181101515620002c657fe5b906020019060200201516000191660001916815260200190815260200160002060006101000a81548160ff02191690831515021790555080806001019150506200025d565b5050565b6114a8806200031f6000396000f3006080604052600436106100fc576000357c0100000000000000000000000000000000000000000000000000000000900463ffffffff16806326a4e8d2146101015780632f265cf7146101845780635938750d146101c9578063626be567146102a95780636eab06c4146102d45780637021939f1461033a57806381c407151461037f5780638397cc94146103eb5780638da5cb5b146104465780639d76ea581461049d578063b13c744b146104f4578063b89694c61461053d578063bdf0a3ed14610586578063cdf58d351461060e578063f2fde38b14610665578063f343d683146106a8578063f78ba710146106ff578063f9b137d714610764575b600080fd5b34801561010d57600080fd5b50610142600480360381019080803573ffffffffffffffffffffffffffffffffffffffff169060200190929190505050610818565b604051808273ffffffffffffffffffffffffffffffffffffffff1673ffffffffffffffffffffffffffffffffffffffff16815260200191505060405180910390f35b34801561019057600080fd5b506101b3600480360381019080803560001916906020019092919050505061095d565b6040518082815260200191505060405180910390f35b3480156101d557600080fd5b5061020a600480360381019080803573ffffffffffffffffffffffffffffffffffffffff169060200190929190505050610982565b604051808060200180602001838103835285818151815260200191508051906020019060200280838360005b83811015610251578082015181840152602081019050610236565b50505050905001838103825284818151815260200191508051906020019060200280838360005b83811015610293578082015181840152602081019050610278565b5050505090500194505050505060405180910390f35b3480156102b557600080fd5b506102be610aba565b6040518082815260200191505060405180910390f35b3480156102e057600080fd5b5061033860048036038101908080359060200190820180359060200190808060200260200160405190810160405280939291908181526020018383602002808284378201915050505050509192919290505050610ac4565b005b34801561034657600080fd5b506103696004803603810190808035600019169060200190929190505050610bd4565b6040518082815260200191505060405180910390f35b34801561038b57600080fd5b50610394610bec565b6040518080602001828103825283818151815260200191508051906020019060200280838360005b838110156103d75780820151818401526020810190506103bc565b505050509050019250505060405180910390f35b3480156103f757600080fd5b50610444600480360381019080803573ffffffffffffffffffffffffffffffffffffffff169060200190929190803590602001909291908035600019169060200190929190505050610c48565b005b34801561045257600080fd5b5061045b610c6e565b604051808273ffffffffffffffffffffffffffffffffffffffff1673ffffffffffffffffffffffffffffffffffffffff16815260200191505060405180910390f35b3480156104a957600080fd5b506104b2610c93565b604051808273ffffffffffffffffffffffffffffffffffffffff1673ffffffffffffffffffffffffffffffffffffffff16815260200191505060405180910390f35b34801561050057600080fd5b5061051f60048036038101908080359060200190929190505050610cb9565b60405180826000191660001916815260200191505060405180910390f35b34801561054957600080fd5b5061056c6004803603810190808035600019169060200190929190505050610cdc565b604051808215151515815260200191505060405180910390f35b34801561059257600080fd5b506105f8600480360381019080803590602001908201803590602001908080602002602001604051908101604052809392919081815260200183836020028082843782019150505050505091929192908035600019169060200190929190505050610cfc565b6040518082815260200191505060405180910390f35b34801561061a57600080fd5b5061064f600480360381019080803573ffffffffffffffffffffffffffffffffffffffff169060200190929190505050610d74565b6040518082815260200191505060405180910390f35b34801561067157600080fd5b506106a6600480360381019080803573ffffffffffffffffffffffffffffffffffffffff169060200190929190505050610d92565b005b3480156106b457600080fd5b506106bd610e67565b604051808273ffffffffffffffffffffffffffffffffffffffff1673ffffffffffffffffffffffffffffffffffffffff16815260200191505060405180910390f35b34801561070b57600080fd5b5061074a600480360381019080803573ffffffffffffffffffffffffffffffffffffffff16906020019092919080359060200190929190505050610e8d565b604051808215151515815260200191505060405180910390f35b34801561077057600080fd5b50610779610f9f565b604051808060200180602001838103835285818151815260200191508051906020019060200280838360005b838110156107c05780820151818401526020810190506107a5565b50505050905001838103825284818151815260200191508051906020019060200280838360005b838110156108025780820151818401526020810190506107e7565b5050505090500194505050505060405180910390f35b60008060009054906101000a900473ffffffffffffffffffffffffffffffffffffffff1673ffffffffffffffffffffffffffffffffffffffff163373ffffffffffffffffffffffffffffffffffffffff1614151561087557600080fd5b600073ffffffffffffffffffffffffffffffffffffffff168273ffffffffffffffffffffffffffffffffffffffff161415156109575781600560006101000a81548173ffffffffffffffffffffffffffffffffffffffff021916908373ffffffffffffffffffffffffffffffffffffffff16021790555081600660006101000a81548173ffffffffffffffffffffffffffffffffffffffff021916908373ffffffffffffffffffffffffffffffffffffffff160217905550600560009054906101000a900473ffffffffffffffffffffffffffffffffffffffff169050610958565b5b919050565b6000600260008360001916600019168152602001908152602001600020549050919050565b606080600160008473ffffffffffffffffffffffffffffffffffffffff1673ffffffffffffffffffffffffffffffffffffffff168152602001908152602001600020600101600160008573ffffffffffffffffffffffffffffffffffffffff1673ffffffffffffffffffffffffffffffffffffffff16815260200190815260200160002060020181805480602002602001604051908101604052809291908181526020018280548015610a5857602002820191906000526020600020905b81546000191681526020019060010190808311610a40575b5050505050915080805480602002602001604051908101604052809291908181526020018280548015610aaa57602002820191906000526020600020905b815481526020019060010190808311610a96575b5050505050905091509150915091565b6000600754905090565b60008060009054906101000a900473ffffffffffffffffffffffffffffffffffffffff1673ffffffffffffffffffffffffffffffffffffffff163373ffffffffffffffffffffffffffffffffffffffff16141515610b2157600080fd5b600090505b8151811015610bd05760048282815181101515610b3f57fe5b9060200190602002015190806001815401808255809150509060018203906000526020600020016000909192909190915090600019169055506001600360008484815181101515610b8c57fe5b906020019060200201516000191660001916815260200190815260200160002060006101000a81548160ff0219169083151502179055508080600101915050610b26565b5050565b60026020528060005260406000206000915090505481565b60606004805480602002602001604051908101604052809291908181526020018280548015610c3e57602002820191906000526020600020905b81546000191681526020019060010190808311610c26575b5050505050905090565b610c528383610e8d565b1515610c5d57600080fd5b610c6883838361109d565b50505050565b6000809054906101000a900473ffffffffffffffffffffffffffffffffffffffff1681565b600560009054906101000a900473ffffffffffffffffffffffffffffffffffffffff1681565b600481815481101515610cc857fe5b906000526020600020016000915090505481565b60036020528060005260406000206000915054906101000a900460ff1681565b600080600090505b8351811015610d495782600019168482815181101515610d2057fe5b90602001906020020151600019161415610d3c57809150610d6d565b8080600101915050610d04565b7fffffffffffffffffffffffffffffffffffffffffffffffffffffffffffffffff91505b5092915050565b60016020528060005260406000206000915090508060000154905081565b6000809054906101000a900473ffffffffffffffffffffffffffffffffffffffff1673ffffffffffffffffffffffffffffffffffffffff163373ffffffffffffffffffffffffffffffffffffffff16141515610ded57600080fd5b600073ffffffffffffffffffffffffffffffffffffffff168173ffffffffffffffffffffffffffffffffffffffff16141515610e6457806000806101000a81548173ffffffffffffffffffffffffffffffffffffffff021916908373ffffffffffffffffffffffffffffffffffffffff1602179055505b50565b600660009054906101000a900473ffffffffffffffffffffffffffffffffffffffff1681565b600081600660009054906101000a900473ffffffffffffffffffffffffffffffffffffffff1673ffffffffffffffffffffffffffffffffffffffff166370a08231856040518263ffffffff167c0100000000000000000000000000000000000000000000000000000000028152600401808273ffffffffffffffffffffffffffffffffffffffff1673ffffffffffffffffffffffffffffffffffffffff168152602001915050602060405180830381600087803b158015610f4d57600080fd5b505af1158015610f61573d6000803e3d6000fd5b505050506040513d6020811015610f7757600080fd5b810190808051906020019092919050505010151515610f9557600080fd5b6001905092915050565b60608060606000600480549050604051908082528060200260200182016040528015610fda5781602001602082028038833980820191505090505b509150600090505b60048054905081101561103a5761101160048281548110151561100157fe5b906000526020600020015461095d565b828281518110151561101f57fe5b90602001906020020181815250508080600101915050610fe2565b6004828180548060200260200160405190810160405280929190818152602001828054801561108c57602002820191906000526020600020905b81546000191681526020019060010190808311611074575b505050505091509350935050509091565b600080600060036000856000191660001916815260200190815260200160002060009054906101000a900460ff1615156110d657600080fd5b611174600160008873ffffffffffffffffffffffffffffffffffffffff1673ffffffffffffffffffffffffffffffffffffffff16815260200190815260200160002060010180548060200260200160405190810160405280929190818152602001828054801561116957602002820191906000526020600020905b81546000191681526020019060010190808311611151575b505050505085610cfc565b91507fffffffffffffffffffffffffffffffffffffffffffffffffffffffffffffffff82141561128157600160008773ffffffffffffffffffffffffffffffffffffffff1673ffffffffffffffffffffffffffffffffffffffff168152602001908152602001600020600101849080600181540180825580915050906001820390600052602060002001600090919290919091509060001916905550600160008773ffffffffffffffffffffffffffffffffffffffff1673ffffffffffffffffffffffffffffffffffffffff16815260200190815260200160002060020185908060018154018082558091505090600182039060005260206000200160009091929091909150555061134e565b600160008773ffffffffffffffffffffffffffffffffffffffff1673ffffffffffffffffffffffffffffffffffffffff168152602001908152602001600020600201828154811015156112d057fe5b906000526020600020015490506112f0858261145e90919063ffffffff16565b600160008873ffffffffffffffffffffffffffffffffffffffff1673ffffffffffffffffffffffffffffffffffffffff1681526020019081526020016000206002018381548110151561133f57fe5b90600052602060002001819055505b6113a385600160008973ffffffffffffffffffffffffffffffffffffffff1673ffffffffffffffffffffffffffffffffffffffff1681526020019081526020016000206000015461145e90919063ffffffff16565b600160008873ffffffffffffffffffffffffffffffffffffffff1673ffffffffffffffffffffffffffffffffffffffff16815260200190815260200160002060000181905550611417856002600087600019166000191681526020019081526020016000205461145e90919063ffffffff16565b6002600086600019166000191681526020019081526020016000208190555061144b8560075461145e90919063ffffffff16565b6007819055506001925050509392505050565b600080828401905083811015151561147257fe5b80915050929150505600a165627a7a72305820e97bd142e69636acd77d5823896783a002601299c63a202b4bda996b77a3f92b0029",
  "source": "pragma solidity ^0.4.18;\n// We have to specify what version of compiler this code will compile with\nimport \"./jjERC223.sol\";\nimport \"./SafeMath.sol\";\n\ncontract Ownable {\n  address public owner;\n\n\n  /**\n   * @dev The Ownable constructor sets the original `owner` of the contract to the sender\n   * account.\n   */\n  function Ownable() {\n    owner = msg.sender;\n  }\n\n\n  /**\n   * @dev Throws if called by any account other than the owner.\n   */\n  modifier onlyOwner() {\n    require(msg.sender == owner);\n    _;\n  }\n\n  function transferOwnership(address newOwner) onlyOwner {\n    if (newOwner != address(0)) {\n      owner = newOwner;\n    }\n  }\n}\n\n\ncontract Voting is Ownable{\n    \n  using SafeMath for uint;\n  /* mapping field below is equivalent to an associative array or hash.\n  The key of the mapping is candidate name stored as type bytes32 and value is\n  an unsigned integer to store the vote count\n  */\n  \n  struct voter{\n    uint256 tokenHolding;\n    bytes32[] votedCandidate;\n    uint256[] tokensUsedPerCandidate; // Array to keep track of votes per candidate.\n    /* We have an array of candidates initialized below.\n     Every time this voter votes with her tokens, the value at that\n     index is incremented. Example, if candidateList array declared\n     below has [\"Rama\", \"Nick\", \"Jose\"] and this\n     voter votes 10 tokens to Nick, the tokensUsedPerCandidate[1]\n     will be incremented by 10.\n     */ \n  }\n  mapping (address => voter) public voterInfo;\n  mapping (bytes32 => uint256) public votesReceived;\n  mapping (bytes32 => bool) public isCandidate;\n  \n  /* Solidity doesn't let you pass in an array of strings in the constructor (yet).\n  We will use an array of bytes32 instead to store the list of candidates\n  */\n\n  // Voter has right to see list of candidates.\n  bytes32[] public candidateList;\n  address public tokenAddress;\n  jjERC223 public tokenInterface;\n  uint256 tokenHoldingInContract;\n\n  /* This is the constructor which will be called once when you\n  deploy the contract to the blockchain. When we deploy the contract,\n  we will pass an array of candidates who will be contesting in the election\n  */\n\n  function isValidVoter(address voter_addr, uint256 value) public returns (bool){\n  \n    require(tokenInterface.balanceOf(voter_addr) >= value);\n    return true;\n  }\n\n  function setTokenAddress(address tokenAddressCandidate) public onlyOwner returns(address){\n    if(tokenAddressCandidate != address(0)){\n      tokenAddress = tokenAddressCandidate;\n      tokenInterface = jjERC223(tokenAddressCandidate);\n      return tokenAddress;\n    }\n  }\n\n  function Voting(bytes32[] candidateNames, address tokenAddressCandidate) public payable {\n    setTokenAddress(tokenAddressCandidate);\n    addCandidates(candidateNames);\n  }\n\n  // This function returns the total votes a candidate has received so far\n  function totalVotesFor(bytes32 candidate) view public returns (uint256) {\n    // require(indexOfCandidate(candidate)>uint(-1));\n    return votesReceived[candidate];\n  }\n  \n  // This function makes possible to see candidates who got votes from the voter before.\n  function indexOfCandidate(bytes32[] votedCandidateList, bytes32 candidate) view public returns (uint) {\n    for(uint i = 0; i < votedCandidateList.length; i++) {\n      if (votedCandidateList[i] == candidate) {\n        return i;\n      }\n    }\n    return uint(-1);\n  }\n  \n  // This function increments the vote count for the specified candidate. This\n  // is equivalent to casting a vote\n  \n  function tokenFallback(address from, uint256 votes, bytes32 candidate) external{\n      require(isValidVoter(from,votes));\n      voteForCandidate(from, votes,candidate);\n  }\n  \n  function voteForCandidate(address _from, uint256 _votes, bytes32 _candidate) internal returns(bool) {\n    \n    require(isCandidate[_candidate]);\n    uint index = indexOfCandidate(voterInfo[_from].votedCandidate,_candidate);\n    if(index == uint(-1)){\n        voterInfo[_from].votedCandidate.push(_candidate);\n        voterInfo[_from].tokensUsedPerCandidate.push(_votes);\n\n    }\n    else{\n        uint256 votedTokenToCand = voterInfo[_from].tokensUsedPerCandidate[index];\n        voterInfo[_from].tokensUsedPerCandidate[index] = votedTokenToCand.add(_votes);\n    }\n\n    // Make sure this voter has enough tokens to cast the vote\n    voterInfo[_from].tokenHolding = voterInfo[_from].tokenHolding.add(_votes);\n    votesReceived[_candidate] = votesReceived[_candidate].add(_votes);\n    tokenHoldingInContract = tokenHoldingInContract.add(_votes);\n    // Store how many tokens were used for this candidate\n    \n    // address voting_contract_addr = address(this);\n    // tokenAddress.callcode(bytes4(sha3(\"transfer(address,uint256)\")), address(this),votes);\n    // tokenInterface.transferFrom(msg.sender,address(this),votes);\n    return true;\n  }\n  \n  function addCandidates(bytes32[] candidateNames) public onlyOwner {\n    for (uint i=0;i<candidateNames.length;i++){\n        candidateList.push(candidateNames[i]);\n        isCandidate[candidateNames[i]] = true;\n    }\n  }\n\n  function allCandidates() view public returns (bytes32[]) {\n    return candidateList;\n  }  \n\n  function totalToken() view public returns (uint256){\n      return tokenHoldingInContract;\n  }\n  \n  function voterDetails(address user) view public returns (bytes32[], uint256[]) {\n    return (voterInfo[user].votedCandidate, voterInfo[user].tokensUsedPerCandidate);\n  }\n\n  function currentVote() public returns(bytes32[],uint256[]){\n    uint256[] memory current = new uint256[](candidateList.length);\n      for (uint i=0;i<candidateList.length;i++){\n          current[i] = totalVotesFor(candidateList[i]);\n      }\n    return (candidateList,current);\n  }\n  \n}\n",
  "sourcePath": "/Users/jaejin/workspace_projects/voting-practice6/contracts/voting.sol",
  "compiler": {
    "name": "solc",
    "version": "0.4.24+commit.e67f0147.Emscripten.clang"
  },
  "schemaVersion": "2.0.1",
  "updatedAt": "2018-07-17T08:38:22.727Z"
}